8=FIX.4.4|9=143|35=V|34=1|49=QUICKFIX_INITIATOR1|52=20200915-10:16:44.325|56=QUICKFIX_ACCEPTER|262=mockedMDReqID|263=1|146=2|55=mockedSymbol1|55=mockedSymbol2|10=003|8=FIX.4.4|9=158|35=D|34=2|49=QUICKFIX_INITIATOR1|52=20200915-10:16:49.379|56=QUICKFIX_ACCEPTER|1=mockedAccount|11=mockedClOrdID|21=1|38=45|40=2|44=25.88|54=1|55=mockedSymbol|10=202|8=FIX.4.4|9=143|35=V|34=3|49=QUICKFIX_INITIATOR1|52=20200915-10:18:42.071|56=QUICKFIX_ACCEPTER|262=mockedMDReqID|263=1|146=2|55=mockedSymbol1|55=mockedSymbol2|10=003|8=FIX.4.4|9=158|35=D|34=4|49=QUICKFIX_INITIATOR1|52=20200915-10:18:47.123|56=QUICKFIX_ACCEPTER|1=mockedAccount|11=mockedClOrdID|21=1|38=45|40=2|44=25.88|54=1|55=mockedSymbol|10=191|